{
  "_format": "hh-sol-artifact-1",
  "contractName": "Calzy",
  "sourceName": "contracts/Calzy.sol",
  "abi": [
    {
      "inputs": [],
      "stateMutability": "nonpayable",
      "type": "constructor"
    },
    {
      "inputs": [
        {
          "internalType": "string",
          "name": "title",
          "type": "string"
        },
        {
          "internalType": "uint256",
          "name": "startTime",
          "type": "uint256"
        },
        {
          "internalType": "uint256",
          "name": "endTime",
          "type": "uint256"
        }
      ],
      "name": "addAppointment",
      "outputs": [],
      "stateMutability": "payable",
      "type": "function"
    },
    {
      "inputs": [],
      "name": "getAppointments",
      "outputs": [
        {
          "components": [
            {
              "internalType": "string",
              "name": "title",
              "type": "string"
            },
            {
              "internalType": "address",
              "name": "attendee",
              "type": "address"
            },
            {
              "internalType": "uint256",
              "name": "startTime",
              "type": "uint256"
            },
            {
              "internalType": "uint256",
              "name": "endTime",
              "type": "uint256"
            },
            {
              "internalType": "uint256",
              "name": "amountPaid",
              "type": "uint256"
            }
          ],
          "internalType": "struct Calzy.Appointment[]",
          "name": "",
          "type": "tuple[]"
        }
      ],
      "stateMutability": "view",
      "type": "function"
    },
    {
      "inputs": [],
      "name": "getRate",
      "outputs": [
        {
          "internalType": "uint256",
          "name": "",
          "type": "uint256"
        }
      ],
      "stateMutability": "view",
      "type": "function"
    },
    {
      "inputs": [
        {
          "internalType": "uint256",
          "name": "_rate",
          "type": "uint256"
        }
      ],
      "name": "setRate",
      "outputs": [],
      "stateMutability": "nonpayable",
      "type": "function"
    }
  ],
  "bytecode": "0x608060405234801561001057600080fd5b5033600160006101000a81548173ffffffffffffffffffffffffffffffffffffffff021916908373ffffffffffffffffffffffffffffffffffffffff160217905550610deb806100616000396000f3fe60806040526004361061003f5760003560e01c806334fcf43714610044578063679aefce1461006d57806396b80d0814610098578063c9f92a67146100c3575b600080fd5b34801561005057600080fd5b5061006b60048036038101906100669190610638565b6100df565b005b34801561007957600080fd5b50610082610179565b60405161008f9190610674565b60405180910390f35b3480156100a457600080fd5b506100ad610182565b6040516100ba91906108b0565b60405180910390f35b6100dd60048036038101906100d89190610a07565b6102e7565b005b600160009054906101000a900473ffffffffffffffffffffffffffffffffffffffff1673ffffffffffffffffffffffffffffffffffffffff163373ffffffffffffffffffffffffffffffffffffffff161461016f576040517f08c379a000000000000000000000000000000000000000000000000000000000815260040161016690610ad3565b60405180910390fd5b8060008190555050565b60008054905090565b60606002805480602002602001604051908101604052809291908181526020016000905b828210156102de57838290600052602060002090600502016040518060a00160405290816000820180546101d990610b22565b80601f016020809104026020016040519081016040528092919081815260200182805461020590610b22565b80156102525780601f1061022757610100808354040283529160200191610252565b820191906000526020600020905b81548152906001019060200180831161023557829003601f168201915b505050505081526020016001820160009054906101000a900473ffffffffffffffffffffffffffffffffffffffff1673ffffffffffffffffffffffffffffffffffffffff1673ffffffffffffffffffffffffffffffffffffffff1681526020016002820154815260200160038201548152602001600482015481525050815260200190600101906101a6565b50505050905090565b6102ef610506565b8381600001819052508281604001818152505081816060018181525050600054603c848461031d9190610b83565b6103279190610be6565b6103319190610c17565b8160800181815250508060800151341015610381576040517f08c379a000000000000000000000000000000000000000000000000000000000815260040161037890610ce3565b60405180910390fd5b6000600160009054906101000a900473ffffffffffffffffffffffffffffffffffffffff1673ffffffffffffffffffffffffffffffffffffffff16346040516103c990610d34565b60006040518083038185875af1925050503d8060008114610406576040519150601f19603f3d011682016040523d82523d6000602084013e61040b565b606091505b505090508061044f576040517f08c379a000000000000000000000000000000000000000000000000000000000815260040161044690610d95565b60405180910390fd5b6002829080600181540180825580915050600190039060005260206000209060050201600090919091909150600082015181600001908051906020019061049792919061054b565b5060208201518160010160006101000a81548173ffffffffffffffffffffffffffffffffffffffff021916908373ffffffffffffffffffffffffffffffffffffffff16021790555060408201518160020155606082015181600301556080820151816004015550505050505050565b6040518060a0016040528060608152602001600073ffffffffffffffffffffffffffffffffffffffff1681526020016000815260200160008152602001600081525090565b82805461055790610b22565b90600052602060002090601f01602090048101928261057957600085556105c0565b82601f1061059257805160ff19168380011785556105c0565b828001600101855582156105c0579182015b828111156105bf5782518255916020019190600101906105a4565b5b5090506105cd91906105d1565b5090565b5b808211156105ea5760008160009055506001016105d2565b5090565b6000604051905090565b600080fd5b600080fd5b6000819050919050565b61061581610602565b811461062057600080fd5b50565b6000813590506106328161060c565b92915050565b60006020828403121561064e5761064d6105f8565b5b600061065c84828501610623565b91505092915050565b61066e81610602565b82525050565b60006020820190506106896000830184610665565b92915050565b600081519050919050565b600082825260208201905092915050565b6000819050602082019050919050565b600081519050919050565b600082825260208201905092915050565b60005b838110156106f55780820151818401526020810190506106da565b83811115610704576000848401525b50505050565b6000601f19601f8301169050919050565b6000610726826106bb565b61073081856106c6565b93506107408185602086016106d7565b6107498161070a565b840191505092915050565b600073ffffffffffffffffffffffffffffffffffffffff82169050919050565b600061077f82610754565b9050919050565b61078f81610774565b82525050565b61079e81610602565b82525050565b600060a08301600083015184820360008601526107c1828261071b565b91505060208301516107d66020860182610786565b5060408301516107e96040860182610795565b5060608301516107fc6060860182610795565b50608083015161080f6080860182610795565b508091505092915050565b600061082683836107a4565b905092915050565b6000602082019050919050565b60006108468261068f565b610850818561069a565b935083602082028501610862856106ab565b8060005b8581101561089e578484038952815161087f858261081a565b945061088a8361082e565b925060208a01995050600181019050610866565b50829750879550505050505092915050565b600060208201905081810360008301526108ca818461083b565b905092915050565b600080fd5b600080fd5b7f4e487b7100000000000000000000000000000000000000000000000000000000600052604160045260246000fd5b6109148261070a565b810181811067ffffffffffffffff82111715610933576109326108dc565b5b80604052505050565b60006109466105ee565b9050610952828261090b565b919050565b600067ffffffffffffffff821115610972576109716108dc565b5b61097b8261070a565b9050602081019050919050565b82818337600083830152505050565b60006109aa6109a584610957565b61093c565b9050828152602081018484840111156109c6576109c56108d7565b5b6109d1848285610988565b509392505050565b600082601f8301126109ee576109ed6108d2565b5b81356109fe848260208601610997565b91505092915050565b600080600060608486031215610a2057610a1f6105f8565b5b600084013567ffffffffffffffff811115610a3e57610a3d6105fd565b5b610a4a868287016109d9565b9350506020610a5b86828701610623565b9250506040610a6c86828701610623565b9150509250925092565b600082825260208201905092915050565b7f596f7520617265206e6f7420746865206f776e65722100000000000000000000600082015250565b6000610abd601683610a76565b9150610ac882610a87565b602082019050919050565b60006020820190508181036000830152610aec81610ab0565b9050919050565b7f4e487b7100000000000000000000000000000000000000000000000000000000600052602260045260246000fd5b60006002820490506001821680610b3a57607f821691505b60208210811415610b4e57610b4d610af3565b5b50919050565b7f4e487b7100000000000000000000000000000000000000000000000000000000600052601160045260246000fd5b6000610b8e82610602565b9150610b9983610602565b925082821015610bac57610bab610b54565b5b828203905092915050565b7f4e487b7100000000000000000000000000000000000000000000000000000000600052601260045260246000fd5b6000610bf182610602565b9150610bfc83610602565b925082610c0c57610c0b610bb7565b5b828204905092915050565b6000610c2282610602565b9150610c2d83610602565b9250817fffffffffffffffffffffffffffffffffffffffffffffffffffffffffffffffff0483118215151615610c6657610c65610b54565b5b828202905092915050565b7f506c6561736520656e74657220616e20617070726f7072697461746520616d6f60008201527f756e74203a290000000000000000000000000000000000000000000000000000602082015250565b6000610ccd602683610a76565b9150610cd882610c71565b604082019050919050565b60006020820190508181036000830152610cfc81610cc0565b9050919050565b600081905092915050565b50565b6000610d1e600083610d03565b9150610d2982610d0e565b600082019050919050565b6000610d3f82610d11565b9150819050919050565b7f4661696c656420746f2073656e64204574686572000000000000000000000000600082015250565b6000610d7f601483610a76565b9150610d8a82610d49565b602082019050919050565b60006020820190508181036000830152610dae81610d72565b905091905056fea26469706673582212202e86c7b72622291de5190330dfd3a4cb54b872e49b62e8dd1f1aa4bbb580545d64736f6c634300080a0033",
  "linkReferences": {},
  "deployedLinkReferences": {}
}